:020000040800F2
:100000009043002449030008BB470008A3450008AB
:10001000B9470008090F0008DD590008000000007A
:10002000000000000000000000000000014A00087D
:100030000B0F000800000000BD470008094B000836
:1000400067030008670300086703000867030008E8
:1000500067030008670300086703000867030008D8
:1000600067030008670300086703000867030008C8
:1000700067030008670300086703000867030008B8
:1000800067030008670300086703000867030008A8
:100090006703000867030008670300086703000898
:1000A0006703000867030008670300086703000888
:1000B0006703000867030008670300086703000878
:1000C0006703000867030008670300086703000868
:1000D0006703000867030008155900086703000854
:1000E00067030008670300080000000067030008BA
:1000F0006703000867030008670300086703000838
:100100006703000867030008670300086703000827
:100110006703000867030008670300086703000817
:100120006703000867030008670300086703000807
:1001300067030008670300086703000867030008F7
:1001400000000000000000000000000000000000AF
:1001500067030008670300086703000867030008D7
:1001600067030008670300086703000867030008C7
:1001700067030008670300086703000867030008B7
:1001800067030008670300086703000867030008A7
:100190006703000867030008670300086703000897
:1001A0006703000867030008670300086703000887
:1001B0006703000867030008670300086703000877
:1001C0006703000867030008670300086703000867
:1001D0006703000867030008670300086703000857
:1001E0006703000867030008670300086703000847
:1001F0006703000867030008670300086703000837
:100200006703000867030008670300086703000826
:100210006703000867030008670300086703000816
:100220006703000867030008670300080000000078
:100230006703000867030008000000006703000868
:1002400067030008670300086703000867030008E6
:1002500067030008670300086703000867030008D6
:1002600067030008670300086703000867030008C6
:100270006703000867030008670300080000000028
:100280006703000867030008670300080000000018
:10029000000000006703000800F002F800F044F8D6
:1002A0000AA090E8000C82448344AAF10107DA45D1
:1002B00001D100F039F8AFF2090EBAE80F0013F0DF
:1002C000010F18BFFB1A43F001031847C45900007F
:1002D000E4590000103A24BF78C878C1FAD8520710
:1002E00024BF30C830C144BF04680C6070470000B0
:1002F0000023002400250026103A28BF78C1FBD82F
:10030000520728BF30C148BF0B607047752900F005
:10031000F580732900F03D82002070471FB505F07D
:100320008FFC1FBD10B510BD00F037FA1146FFF766
:10033000F5FF05F065FB00F055FA03B4FFF7F2FF97
:1003400003BC00F05DFA00000A4880470A48804775
:100350000A480047FEE7FEE7FEE7FEE7FEE7FEE7A6
:10036000FEE7FEE7FEE7FEE705480649064A074BBB
:1003700070470000110F0008A94B000899020008FF
:10038000903D002490430024903F0024903F00249F
:1003900053EA020C00F069802DE9F04B4FF00006A3
:1003A000002B1FBFB3FA83F503FA05F424FA05F610
:1003B0005E4012BF1643B2FA82F502FA05F4C5F1A7
:1003C00020051EBF22FA05FC44EA0C04203556EA3B
:1003D000044C4FEA144418BF641C4FF000084FF05F
:1003E0000009904271EB030C39D3002919BFB1FA0F
:1003F00081F701FA07F6B0FA80F700FA07F6C7F1BD
:1004000020071EBF20FA07FC46EA0C062037B6FB81
:10041000F4FCA7EB0507103F07F01F0BCBF12006FC
:100420000CFA0BFB2CFA06F644BFB3460026202F2D
:10043000A4BF5E464FF0000B5BEA060C08BF4FF00E
:10044000010B19EB0B09ABFB027C48EB0608C01B48
:1004500006FB02CC0BFB03CC71EB0C01C1E70B4696
:10046000024641464846BDE8F08B13B54FF0000008
:100470004FF00001AFF30080BDE81C407047000062
:100480000FB41CB5074B06AA7B446946009005983B
:1004900000F055F90020694600F064F91CBC5DF8D5
:1004A00014FB0000D902000070B50C460546012A75
:1004B00005D02878800600D5EA69002302E00123F0
:1004C00005E05B1C934202D2E05C0028F9D1A869E8
:1004D000E618C01AA861286A184428622846AFF3B3
:1004E000008004E0D5E9012114F8010B9047B442E3
:1004F000F8D32846AFF3008070BD00002DE9F0412D
:100500000646002410687529314616A510D0AFF3B1
:100510000080002802DA404213A507E031688A070C
:1005200001D512A502E0490704D511A5012401E077
:10053000AFF3008000210A2206F1240709E0B0FB96
:10054000F2FCB0FBF2F302FB1C003030785418468A
:10055000491C0028F3D123462A463046BDE8F04125
:1005600000F08EB8000000002D0000002B000000FD
:10057000200000002DE9F0410F46054600202862CA
:100580002846E968884770B3252805D0D5E90121B8
:100590009047286A401CF2E7E96828460026884709
:1005A0006C2804460AD0682C08D04C2C35D06A2C14
:1005B00031D0742C31D07A2C2FD016E0E968064661
:1005C00028468847B042044608D16C2E23D04FF409
:1005D00080662846E9688847044606E06C2E03D00A
:1005E0004FF4807601E01EE04026E4B1A4F1410022
:1005F000192802D8203446F400663A462146284697
:100600002E60FFF783FE60B1012808D0FF1D27F0A0
:1006100007070837B4E78026DBE70026D9E73F1D48
:10062000AEE72046B2E7286ABDE8F0814FF000024D
:1006300000B5134694469646203922BFA0E80C50D8
:10064000A0E80C50B1F12001BFF4F7AF090728BFB3
:10065000A0E80C5048BF0CC05DF804EB890028BF2F
:1006600040F8042B08BF704748BF20F8022B11F058
:10067000804F18BF00F8012B7047704770477047D4
:100680002DE9F0470D4699469246044600F12408AC
:100690000168880604D5E06921F01001216000E0BE
:1006A0000120A84201DD471B00E00027A1697A195B
:1006B00002EB0900081AA0612078C00602D4204687
:1006C000AFF30080002608E0D4E901211AF8060003
:1006D0009047206A401C761C20624E45F4DB20784F
:1006E000C0060AD52046AFF3008006E0D4E9012118
:1006F00030209047206A401C2062381EA7F1010775
:10070000F4DC07E0D4E9012118F805009047206ADD
:10071000401C2062281EA5F10105F3DC2046AFF342
:1007200000802078000602D50220BDE8F087012075
:10073000FBE7000001694A1C02610878704700B5B8
:100740008FB0CDE901310021059105497944CDE90A
:10075000031011466846FFF70DFF0FB000BD000003
:10076000E5FFFFFF0A6802F8010B0A60704710B549
:10077000436913B1AFF3008001E0FFF795FE01205C
:1007800010BD127800F124010A7000224A70012283
:10079000EDE711684FF0FF32E9E7754600F02CF8FD
:1007A000AE4605006946534620F00700854618B05E
:1007B00020B5FFF7D9FDBDE820404FF000064FF00F
:1007C00000074FF000084FF0000B21F00701AC4686
:1007D000ACE8C009ACE8C009ACE8C009ACE8C009A5
:1007E0008D46704710B50446AFF300802046BDE843
:1007F0001040FFF7A2BD000000487047303D0024C4
:1008000001491820ABBEFEE7260002007047000039
:100810000349C0F305220A70487004F041BA000091
:100820003400002400EE100A9FED0A1B0B49B8EEBD
:10083000400B10B420EE010BBCEEC00B10EE100A02
:10084000C871020A8A71030C4B71040E0C7110BC42
:1008500004F026BA95D626E80B2E11403400002469
:10086000F0B587B014216846FFF7E0FE194801682B
:1008700041F001010160016801F001010591016889
:1008800041F002010160006801250226124F00F0CC
:100890000200059041F6930069460024CDE9000569
:1008A000CDE90246384601F09DFB20206946CDE99E
:1008B00000043846029401F095FB43F290306946FB
:1008C000CDE900050548CDE9024601F08BFB07B0F4
:1008D000F0BD0000E0440258000002580004025835
:1008E0002DE9F0411E4800254FF6FF7401F006F88F
:1008F0001C4F002640F6C41819480A2100F06CFF6E
:100900000028174805D001F07DF89FED170ABDE8D3
:10091000F08100F0FDFD711C27F816008EB24645EF
:10092000EAD30F4801F06EF80020424637F8101065
:10093000A94200D90D46A14200D20C46401C80B20B
:100940009042F3D3281B00EE100A9FED081ADFED4A
:10095000080AB8EEC00A20EE011A81EE200AD6E796
:100960003C0000241C0500240000000033335340E9
:1009700000FF7F4770B53A4905460068884202D0BB
:10098000384A904202D1D1F8080302E03648D0F844
:10099000080310F4403F11D002F0C8FE0446686816
:1009A000B0F5803F06D0B0F5003F03D0B0F5403F32
:1009B00027D101E0000C18E0A40822E000214FF448
:1009C000002001F04BFF044668688103890B18D1B1
:1009D00081140C2915D2DFE801F01406060606067C
:1009E000060B0D0F1113800C4000B4FBF0F408E06F
:1009F000240906E0640904E0A40902E0E40900E037
:100A0000240A01F009FC41F20301884208D8174882
:100A100084422868816813D821F48071816070BD98
:100A200013496008884204D82868816821F440711D
:100A3000F4E71049884206D82868816821F440719B
:100A400041F48071EAE70C4988422868816804D83B
:100A500021F4407141F40071E0E741F44071DDE7B9
:100A6000002002400021024000600258002D3101A8
:100A7000105E5F0020BCBE0040787D012DE9F04192
:100A80000027044600680D4603F008FE064620686D
:100A900003F000FE30435DD020682F4EC16889010D
:100AA00005D5617D012902D1217D01290BD0022DBF
:100AB0001DD0206803F0F2FDB8B120688168C1F351
:100AC000400169B111E02549012502E08F4232D28F
:100AD0007F1C0268D2435206F8D440210160E8E747
:100AE0008168314041F010018160012D11D02068F2
:100AF00003F0D0FD48B120688168C1F3400121B9FD
:100B00008168314041F020018160022D08D0032D21
:100B100004D0042501F086FB064617E00C25F9E712
:100B20000825F7E701F07EFB801B05280ED9206819
:100B3000806828420AD0606D40F010006065A06DAA
:100B400040F00100A0650120BDE8F08120688068C8
:100B50002842E7D10020F7E7C0FFFF7F00DC0C0050
:100B600070B50446006881688268C1F3400112F0E4
:100B7000010F28D039BB816801F00D01012914D182
:100B80008168124A1140891C816021680320086035
:100B900001F048FB054612E001F044FB401B02282F
:100BA0000DD920688068C00709D0606D40F0100042
:100BB0006065A06D40F00100A065012070BD206857
:100BC0008068C007E8D1002070BD0000C0FFFF7F33
:100BD00070B504460068816811F0010F40D181684A
:100BE000204A11422DD18168D5432940491C81609A
:100BF00001F018FB1C49064620681C4B884201D0B6
:100C0000984201D11A4A00E01A4A9268984202F0CA
:100C10001F0200D0014681421DD0E2B120E0816870
:100C200011F0010F03D181682940491C816001F056
:100C3000F9FA801B02280ED920680068C043C0075B
:100C400009D0606D40F010006065A06D40F00100BB
:100C5000A065012070BD20680168C943C907DED1C5
:100C6000002070BD3F0000800020024000210240B3
:100C7000002302400063025810B52DED048B88B0AC
:100C80009FED920A924952200022B0EE401AF0EEF7
:100C9000401AB0EE402AF0EE400A01EB8204531CE9
:100CA000D4ED002A9AB2824232EE811AF5D302EED6
:100CB000900A0246F8EE622AC1EE223A08E000BF2E
:100CC00001EB8203521C93ED001A92B271EE211ACD
:100CD000B2EB400FF4D301EE100A4FF6FF7404EAB2
:100CE0004002B8EE411AC1EE814A07E001EB8203EF
:100CF000521C93ED001A92B231EE022AF62AF5D375
:100D000001EE100A5FF00000B8EE411A82EE014ACF
:100D100001EB800292ED001AB4EEE01AF1EE10FA47
:100D200001DDF0EE410A401C80B2F628F0D39FEDC1
:100D3000691A73EE845AF6EE001A34EE013A4FF057
:100D40007E51B0EE005AB7EE002AC3EE832AB0EE11
:100D5000413AB0EE408A05EEA13AF0EE408AB0EE9C
:100D6000409A73EE015A84EEA53A12EE900A884238
:100D700004DB72EEC22A02EE858A03E072EE622A7A
:100D800042EE858A13EE100AF7EE082A884204DB49
:100D900033EE423A03EE220A03E032EE433A03EE28
:100DA000229A30EE811AF0EE409A4BA12246684614
:100DB000C4EE810A83EE813A40EEA19AC4EE012A84
:100DC00032EE601A03EE218A01EE219A42EEA18AE8
:100DD000FFF756FB684604F029FFFF2004F01AFFD6
:100DE000FF2004F017FFFF2004F014FF3DA122466E
:100DF0006846FFF745FB684604F018FFFF2004F043
:100E000009FFFF2004F006FFFF2004F003FF38A1D4
:100E100022466846FFF734FB684604F007FFFF20D0
:100E200004F0F8FEFF2004F0F5FEFF2004F0F2FECF
:100E300032A122466846FFF723FB684604F0F6FE1F
:100E4000FF2004F0E7FEFF2004F0E4FEFF2004F0A2
:100E5000E1FEB0EE480A0120F4EEC08AF1EE10FA8D
:100E600002DD0220B0EE680AF4EEC09AF1EE10FA4C
:100E700002DD0320B0EE690A4FF6E072B4EEC09ACC
:100E8000F1EE10FA07DC012819D0022819D0032846
:100E900019D004280FD113A16846FFF7F1FA68466C
:100EA00004F0C4FEFF2004F0B5FEFF2004F0B2FE03
:100EB000FF2004F0AFFE08B0BDEC048B10BD0FA105
:100EC000EAE70BA1E8E704A1E6E700000000000064
:100ED0003401002417B7D13874302E62636F3D257A
:100EE0007500000074322E62636F3D2575000000AE
:100EF00074332E62636F3D257500000074342E62DA
:100F0000636F3D2575000000FEE7704772B6FEE78F
:100F1000054805490839026842F002020260086883
:100F20008004FCD5704700000C480258F8B5002733
:100F3000044615460E46009790F8500001280BD045
:100F4000012084F850002046FFF70AFE0100606D82
:100F500004D040F010002DE00220F8BD20F48850AD
:100F600040F002006065206806F4803205F080439E
:100F7000134D1A4383682B401A4342F000428260AB
:100F8000104A20680EE0009B5B1C0093934209D33B
:100F9000606D84F8507020F0020040F01000606531
:100FA0000120F8BD8368DB0FEDD1606D20F00200F9
:100FB00040F001006065084684F85070F8BD0000FC
:100FC000C0FFFE3F00F8C3252DE9F0470F4690F81B
:100FD00050109AB0044601294FF0000915D00026A0
:100FE000DFF8F880012084F85000159616962168E5
:100FF00041450ED13A4D0095284603F053FB8246F9
:10100000206803F04FFB60B10EE002201AB0BDE88B
:10101000F087606D84F8506040F02000606501202A
:10102000F4E7BAF1000F09D0616D4FF0010941F00A
:1010300020006065484684F85060E7E72068414634
:10104000884201D0A84201D1264800E0264840F657
:101050001F72D7F800C0254BBCF1000F23D0D0F889
:1010600008C0D7F804802CF4404C4CEA080CC0F8B7
:1010700008C0D4F800C08C4501D0AC4507D18968C0
:10108000AB6801F0010103F00103194302E0996824
:1010900001F001010029CDD1BD6839688368294379
:1010A0009343194317E0876827F440478760276810
:1010B0008F4201D0AF4207D18968AB6801F00101CE
:1010C00003F00103194302E0996801F001010029CE
:1010D000B0D1816891438160ACE7000000200240FC
:1010E00000210240002302400063025800600258C1
:1010F0002DE9F84F04460D460020DFF8A8B3009014
:10110000074694F85010DFF8A0A320680129E74EA5
:1011100007D04FF0010984F8509003F0BFFA18B1DE
:1011200071E10220BDE8F88F286800280EDB2168F5
:101130000303CA6928D090FAA0F0B0FA80F000BF8B
:1011400000F01F0309FA03F00243CA61D5E9001257
:101150004FF00C0C20681F23C1F384610CEA921C31
:1011600002F01F02604493409140026B9A430A438D
:101170000263206803F092FA8046206803F08AFA3E
:1011800058EA000003D08DE0C0F38460D8E72A68F5
:10119000042320684FF0070CA96803EAD2531844CF
:1011A0004369C2F304520CFA02FC914023EA0C0397
:1011B0000B434361BE490968B9EB117F06D1216831
:1011C0006869C968C1F38201490008E02068C16804
:1011D000C906C1686869F5D501F010014908884061
:1011E000296904292ED023682A6803EB810102F0C3
:1011F000F8420B6E024303F0004010430866697E1C
:1012000022682869012917D05FF0000102EB8000F5
:10121000026E22F000420A430266297E20682A6993
:1012200001290CD00021036902F01F02914023F430
:10123000F0420A43026135E04FF00041E6E74FF427
:101240000061F0E720682978026E02F0F842B2EB04
:10125000816F03D1016E21F0004101662068297879
:10126000426E02F0F842B2EB816F03D1416E21F081
:101270000041416620682978826E02F0F842B2EBA4
:10128000816F03D1816E21F0004181662068297849
:10129000C26E02F0F842B2EB816F03D1C16E21F051
:1012A0000041C1662068816811F0010F72D150F8C9
:1012B000C02F2B7BDFF8FCC1296803F018032CFA40
:1012C00003FCC1F3130822EA08020CEA010C42EA0B
:1012D0000C020260E96859456CD177482268DFF852
:1012E000DCC1DFF8DCB18242DFF8D8E17648774B29
:1012F000DFF8DC8122D12968614524D0B1EB4C0CA8
:1013000038D0A1F1496CBCF1080C35D0A1F1865C54
:10131000BCF1100C32D0DFF8BCC1614528D071455A
:101320003AD0814230D0994232D06B48814201D1CB
:101330006A4831E041452ED169482DE0B2422AD1B8
:101340002968614501D1012026E0A1F1066CBCF1BC
:10135000040C0FD0A1F1496CBCF1080C0CD0A1F128
:10136000865CBCF1100C09D0DFF868C1614507D17B
:101370005C4811E058460FE05B480DE05B480BE02D
:10138000714509D0814201D1184605E09942D1D179
:10139000574801E03CE00020D16903031AD090FADD
:1013A000A0F0B0FA80F000BF00F01F0309FA03F0CC
:1013B0000143D161D5F800C0BCF1000F28DA3E4BE3
:1013C00020684C49DFF83091984201D0B04203D1F7
:1013D0000A4602E0800EE7E74A469268984202F029
:1013E000E07201D0B04209D19D68D6F8088005F0BE
:1013F000010508F0010845EA080503E0DAF808509D
:1014000005F001054DB1606D012740F020006065D9
:10141000002084F85000384684E6384DAC451CD195
:1014200015021AD45045F3D1984202D0B04200D0F0
:1014300049468B6842F4000023F0E07202438A6060
:1014400030492F480968B1FBF0F04000801C00E0F3
:10145000401E00900028FBD1DAE72B4DAC450CD1A3
:10146000D5010AD45045D3D1984202D0B04200D021
:1014700049468B6842F080700EE0244DAC45C7D1E0
:101480005502C5D45045C3D1984202D0B04200D0D5
:1014900049468B6842F4800023F0E07202438A6080
:1014A000B6E700000000FF4700600258002102403C
:1014B0000010005CFFFF0F0000200240020030041B
:1014C000400020190004002A0008302E001060326D
:1014D0000000844B2000F01400002143000052471C
:1014E0000000B84F0002B0258000501D000180218F
:1014F000002090360023024000630258000084CB95
:10150000400D03002C000024000052C70000B8CF9B
:101510000068006C70470000F8B54FF0000604004A
:101520003546009602D0606D10B107E00120F8BD8D
:10153000204600F005F9A66584F8506020688168AF
:10154000C1F3407119B18168704A1140816020680F
:101550008168C1F3007181B981686D4A114041F021
:10156000805181606C496B480968B1FBF0F0401C08
:1015700000E0401E00900028FBD120688168C1F384
:10158000007141B9616D012541F010016165A16DE6
:1015900041F00101A16503F081F8616DC90600D435
:1015A00020B1606D012540F0100093E0606D20F4E3
:1015B000807040F0020060652068816811F0010FC2
:1015C0001FD1564A564B904201D0984207D191689C
:1015D0009E6801F0010106F00106314303E0514924
:1015E000896801F0010161B9904201D0984201D1AE
:1015F0004D4800E04D488268616822F47C120A433D
:10160000826000F009FE41F20301884202D9A0681D
:1016100010280CD0617D227FA368206B490341EA2A
:10162000024118430843217F01290CD010E0607D5E
:10163000227F216B400340EA024241F01000104338
:1016400040F00C00EFE7218C394A02EB414108439E
:10165000616A29B1A26A01F47871014342EA01008A
:101660002168344BCA681A400243CA60206803F0FC
:1016700015F80646206803F00DF830431DD12168A7
:1016800044F20303267DE26AC86842EA8632984340
:101690001043C86094F8380001281ED02068016902
:1016A00021F0010101612068626B016921F0704144
:1016B000114301612046FFF75DF9E06801282068C9
:1016C0001CD0016B21F00F010163606D20F002005E
:1016D00040F0010060652846F8BD2068A28F164FD3
:1016E000D4E9101C154E07EB0247A36C026941EACE
:1016F0000C013B43324019431143D3E7A269016B0C
:10170000521E21F00F011143DEE70000C0FFFF5F12
:10171000C0FFFF7F400D03002C000024002002408A
:10172000002102400060025800230240006302587A
:101730000000FEFF03C0F0FF0100FFFF1EF800FCE9
:10174000F0B5B7B00446142130A8FEF76FFFC021F2
:101750006846FEF76BFF1D492068884234D102209D
:101760000A250022CDE90350C026299220270590A2
:1017700004231446CDE90606CDE908724FF4002192
:1017800068468DE80E0001F0CDF908B1FFF7BEFB09
:101790000F48016841F020010160006800F020005E
:1017A00035900B480830016841F001010160006884
:1017B00030AA032100F001003590402082E8130098
:1017C000044830A900F00EFC37B0F0BD0020024004
:1017D000D8440258000002582DE9F047434D044612
:1017E000006888464249434BA842DFF80C9101D07B
:1017F000484501D10A4600E01A46926802F01F06E9
:101800002269082A14D0AEB1052E13D0092E11D0AA
:10181000A84202D0484500D01946886800F44040EC
:1018200058B1606D40F0200060650120BDE8F08790
:10183000082703E0C068C007F2E7042700F0F2FCC5
:10184000824618E0B8F1FF3F15D000F0EBFCA0EBAA
:101850000A01414502D8B8F1000F0CD12068006898
:10186000384208D1606D002184F8501040F0040027
:1018700060650320DAE7206800683842E2D0606DD6
:1018800040F400706065206802F010FF80B1607D58
:1018900070B92068006800070AD5606D20F4807078
:1018A0006065606DC00403D4606D40F00100606548
:1018B0002068484501D12A4600E00246824210D005
:1018C0007EB1052E0DD0092E0BD0484500D005461F
:1018D000E968082F07D0490401D40C2101600020D9
:1018E000A4E7C168F5E70821F8E7000000200240FE
:1018F0000023024000630258002102402DE9F0411C
:101900003B4D044600683B4FA84201D0B84201D18C
:10191000394900E03949896801F01F0602F0BEFE2E
:1019200018B102210846BDE8F08194F85000012862
:101930000CD0012084F850002046FFF749F901003F
:101940004FF0000204D084F85020EBE70220EAE7D1
:10195000636D40F6016C206823EA0C03B84243F43F
:101960008073636501D12B4600E00346834200D0BB
:101970001EB9636D23F480136365636DDB0404D5C6
:10198000A36D23F00603A36500E0A2651C2303609A
:1019900084F850202068B84201D12A4600E002466F
:1019A000824215D0A6B1052E12D0092E10D0626D3C
:1019B000B84242F48012626500D00546E8688001B2
:1019C000B0D5606D20F4005040F480506065A9E708
:1019D000C268920105D5626D22F4005242F4805231
:1019E00062658268064B1A40121D82609AE7000009
:1019F0000020024000210240002302400063025800
:101A0000C0FFFF7F10B5044690F85000012808D0B1
:101A1000012084F8500003212046FFF72FF810B171
:101A20000BE0022010BD2046FFF79AF828B9616D3F
:101A300021F4885141F001016165002184F85010C2
:101A400010BD00002DE9F84F044600F0EBFB0090BC
:101A50003CB194F83500022806D080216165002051
:101A6000E4E00120BDE8F88FC74DC74EC6491835E0
:101A700020683036DFF81483DFF814938842DFF8EB
:101A800014A3DFF814B328D0A84226D0B04224D043
:101A9000404522D0484520D050451ED058451CD046
:101AA000BD4A1832904218D0BC4A904215D0BB4A69
:101AB0001832904211D0B94A303290420DD0B74A14
:101AC0004832904209D0B54A6032904205D0B34ABC
:101AD0007832904201D0B14A9032026822F001027D
:101AE0000260206888422ED0A8422CD0B0422AD072
:101AF000404528D0484526D0504524D0584522D0CE
:101B0000A54A183290421ED0A44A90421BD0A34A44
:101B10001832904217D0A14A3032904213D09F4AD7
:101B2000483290420FD09D4A603290420BD09B4A7F
:101B30007832904207D0994A9032904203D0974A27
:101B4000A832904209D1026822F01E020260206889
:101B5000426922F08002426103E0026822F00E0234
:101B600002602768884938468F424DD0A8424BD042
:101B7000B04249D0404547D0484545D0504543D074
:101B8000584541D08449183188423DD08349884224
:101B90003AD082491831884236D080493031884263
:101BA00032D07E49483188422ED07C49603188420B
:101BB0002AD07A497831884226D0784990318842B3
:101BC00022D07649A83188421ED0754988421BD060
:101BD00073491431884217D071492831884213D093
:101BE0006F493C3188420FD06D49503188420BD04B
:101BF0006B496431884207D069497831884203D003
:101C000067498C318F4214D1206E016821F48071B4
:101C100001600EE000F006FB0099401A052808D983
:101C2000202262650321002084F8351084F83400F6
:101C300017E73868C007EDD1534A01212068904268
:101C40002ED0A8422CD0B0422AD0404528D04845BA
:101C500026D0504524D0584522D04F4B18339842B7
:101C60001ED04E4B98421BD04C4B1833984217D085
:101C70004A4B3033984213D0484B483398420FD0E8
:101C8000464B603398420BD0444B7833984207D090
:101C9000424B9033984203D0404BA833984208D12E
:101CA00094F85C703F23A06D07F01F07BB40836072
:101CB00007E094F85C30A06D03F01F0301FA03F312
:101CC0004360206890424DD0A8424BD0B04249D0EA
:101CD000404547D0484545D0504543D0584541D070
:101CE0002D4A183290423DD02C4A90423AD02B4A8D
:101CF0001832904236D0294A3032904232D0274AA8
:101D0000483290422ED0254A603290422AD0234A4F
:101D10007832904226D0214A9032904222D01F4AF7
:101D2000A83290421ED01E4A90421BD01C4A143248
:101D3000904217D01A4A2832904213D0184A3C32A7
:101D400090420FD0164A503290420BD0144A64325F
:101D5000904207D0124A7832904203D0104A8C3217
:101D600090420BD1D4E919024260E06E30B10268B2
:101D700022F480720260D4E91C024260002084F8E0
:101D8000351084F834006DE610000240580002401F
:101D90007000024088000240A0000240100402408F
:101DA000085402582DE9F05F28B190F83510022947
:101DB00004D0802141650120BDE8F09F764A764B32
:101DC000DFF8D4C1183201683033744CDFF8D0B179
:101DD0006145744D744E754FDFF8D4E1DFF8D4A13E
:101DE000DFF8D49131D091422FD099422DD0A14229
:101DF0002BD0594529D0A94227D0B14225D0B9428C
:101E000023D0DFF8AC81A8F1780841451DD0DFF878
:101E1000A081A8F16008414517D0DFF89481A8F1AE
:101E20004808414511D0DFF88881A8F130084145C4
:101E30000BD0DFF87C81A8F11808414505D0714529
:101E400003D0514501D049452AD14FF0040880F80C
:101E5000358061451FD091421DD099421BD0A142CF
:101E600019D0594517D0A94215D0B14213D0B94263
:101E700011D04F48783881420DD04D4860388142AA
:101E800009D04B484838814205D049483038814212
:101E900001D047481838086820F00100086078E051
:101EA000D1F8008028F00108C1F800800168D1F85D
:101EB000008028F00E08C1F800800168614546D016
:101EC000914244D0994242D0A14240D059453ED09F
:101ED000A9423CD0B1423AD0B94238D0344A783ADB
:101EE000914234D0324A603A914230D0304A483A36
:101EF00091422CD02E4A303A914228D02C4A183A9E
:101F0000914224D0714522D0514520D049451ED060
:101F10002A4A91421BD0294A1432914217D0274AAB
:101F20002832914213D0254A3C3291420FD0234AA5
:101F3000503291420BD0214A6432914207D01F4A5D
:101F40007832914203D01D4A8C32914218D1026EF0
:101F50000121136823F48073136090F85C30826D64
:101F600003F01F0399405160D0E919124A60C16E15
:101F700031B10A6822F480720A60D0E91C124A600A
:101F80000122016D002380F8352080F8343001B142
:101F90008847002010E7000010000240580002406F
:101FA0007000024088000240A0000240B8000240D9
:101FB00088040240A0040240B804024008540258B9
:101FC00070B5044600F02EF90546601C02D00448A6
:101FD0000078044400F026F9401BA042FAD370BDFB
:101FE000200000242DE9F84F03247F4D00234FF0FB
:101FF00001094FF0B04B4FF00F0AEDE009FA03F67C
:1020000032407AD00F7907F00307012F01D0022F59
:1020100019D187684FEA430ED1F80CC004FA0EF8C4
:1020200027EA08070CFA0EFC4CEA070CC0F808C0B7
:10203000D0F804C00F792CEA060CC7F300179F40B4
:1020400047EA0C0747600E79F643B60702D18E685F
:10205000012E0BD0C6684FEA43088F6804FA08FCCB
:1020600026EA0C0607FA08F73743C7600E7906F030
:102070000306022E12D1DE080F694FEA437C00EB03
:102080008606B646366A4FEADC6C0AFA0CF807FA9E
:102090000CF726EA08063743CEF820700F79066859
:1020A0004FEA430807F0030704FA08FC07FA08F7A9
:1020B00026EA0C06374307604E6816F4403F1CD0F2
:1020C0004A4E376847F00207376036689F0706F0C8
:1020D0000206009623F0030606F1B046B6463F0F0F
:1020E000D6F80864DFF808810AFA07FC404526EABA
:1020F0000C0603D14FF0000C41E06CE0DFF8F4C0B7
:10210000604502D14FF0010C39E0DFF8ECC06045CA
:1021100002D14FF0020C32E0DFF8E0C0604502D19E
:102120004FF0030C2BE0DFF8D8C0604502D14FF030
:10213000040C24E0DFF8CCC0604502D14FF0050C60
:102140001DE0DFF8C4C0604502D14FF0060C16E078
:10215000DFF8B8C0604502D14FF0070C0FE0DFF8A0
:10216000B0C0604502D14FF0080C08E0DFF8A4C011
:10217000604502D14FF0090C01E04FF00A0C0CFA57
:1021800007FC4CEA060CCEF808C44F68DBF8006088
:10219000FF0226EA020600D516435F46CBF8006030
:1021A000D1F804C0DBF804605FEA8C2C26EA020652
:1021B00000D516437E606E684F6826EA0206BF03AC
:1021C00000D516436E602E684F6826EA0206FF03AC
:1021D00000D516432E605B1C0A6832FA03F67FF4C2
:1021E0000DAFBDE8F88F000080000058F44402589D
:1021F000000002580004025800080258000C02585F
:10220000001002580014025800180258001C02580E
:10221000002002580024025801480068000C704752
:102220000010005C01488068704700002000002416
:1022300002488168027811448160704720000024C0
:10224000032010B500F0D4F801F0B6FA0F4A104997
:1022500014681368C4F3032203F00F038A5CC95C9B
:1022600002F01F0201F01F01D0400A4A20FA01F1DA
:102270001160094908600F2000F010F808B1012032
:1022800010BD00F079F8002010BD0000184402587D
:10229000725C0008300000242C00002470B50D4D45
:1022A00004462878A0B14FF47A71B1FBF0F00A49E6
:1022B0000968B1FBF0F001F0DCFD48B9102C07D241
:1022C00000222146501E00F073F800206C6070BDA3
:1022D000012070BD200000242C000024154BF0B517
:1022E000083B427813491A600B680A1F23F0010368
:1022F0000B6043681360057BC67A827A437B2D07A7
:10230000847B45EA0665C77B90F809C0067A90F899
:1023100000E045EAC24040EA834040EA444040EAE7
:10232000074040EA0C2040EA460040EA0E00086000
:10233000F0BD0000A0ED00E0BFF35F8F0448002176
:102340000368034A23F480330360703211607047DE
:1023500024ED00E0074A40F00100064970321060A9
:10236000086840F480300860BFF34F8FBFF36F8F71
:102370007047000024ED00E0054808B5016841F011
:1023800002010160006800F00200009008BD00003A
:10239000F4440258002809DB410900F01F028900BB
:1023A000012001F1E0219040C1F8000170470000D8
:1023B0000E4BF0B41B680D46C3F30223C3F10706AE
:1023C000042E00D90426191D072901D2002300E09C
:1023D000DB1E012404FA06F19C40491E2940641EBC
:1023E000994014402143F0BC03F0F9BA0CED00E031
:1023F000064900F0070210B54FF6FF040868044BC9
:10240000204040EA02201843086010BD0CED00E0B7
:102410000000FA05134970B50A68D243520705D582
:10242000096801F00701814213D118E00A6822F01F
:10243000070202430A60FFF7F5FE0A4D4FF47A7671
:102440000446083D07E000BFFFF7ECFE001BB0426A
:1024500001D9012070BD2868C0438004F4D4002055
:1024600070BD00000C48025810B501F05FF9054935
:102470000968054AC1F30211515C01F01F01C8400F
:1024800010BD000020440258725C00084A4930B573
:10249000494C0B1D0A680C3409681D68246802F059
:1024A000030305F00102C1F30511C4F3CC040029B4
:1024B00014FB02F200EE102AF8EE400A76D0414AF0
:1024C0009FED3E1ADFED3E1AB7EE000A23B1012B55
:1024D0005AD0022B18D15CE0374C283C23689B066D
:1024E00012D5394B246801EE901A1168C4F3C10467
:1024F000F8EE612AE34001EE903AC1F30801F8EEEC
:10250000611A81EEA22A07E002EE101A1168F8EEB5
:10251000422A81EEA22A45E001EE901A1168F8EEF7
:10252000611A40EE811A71EE800A62EE200AC1F350
:10253000462101EE101AB8EE411A31EE001AC0EE33
:10254000811ABCEEE11A80ED001A1168C1F3064150
:1025500001EE101AB8EE411A31EE001AC0EE811ADF
:10256000BCEEE11A80ED011A1168C1F3066101EEBB
:10257000101AB8EE411A31EE000A80EE801ABCEE55
:10258000C10A80ED020A30BD01EE901ADFED0F2A7C
:1025900003E001EE901ADFED0E2A1168F8EE611AE1
:1025A00082EEA12AC1F30801B6E7FFE7002101602E
:1025B0004160816030BD00002844025800000039AD
:1025C0000024744C304402580090D0030024744A14
:1025D00020BCBE4B494930B5484C0B1D0A68143429
:1025E00009681D68246802F00303C5F30012C1F3F3
:1025F0000531C4F3CC04002914FB02F200EE102ACA
:10260000F8EE400A75D03F4A9FED3D1AB7EE000A3A
:102610006BB1DFED3D1A012B01D0022B64D002EE2D
:10262000101A1168F8EE422A81EEA22A21E0334CFA
:10263000283C23689B0612D5344B246801EE901A7F
:102640001168C4F3C104F8EE612AE34001EE903A48
:10265000C1F30801F8EE611A81EEA22A0BE001EE47
:10266000901ADFED2B2A00BFF8EE611A116882EE96
:10267000A12AC1F3080101EE901A1168F8EE611A5F
:1026800040EE811A71EE800A62EE200AC1F3462103
:1026900001EE101AB8EE411A31EE001AC0EE811A9E
:1026A000BCEEE11A80ED001A1168C1F3064101EE9B
:1026B000101AB8EE411A31EE001AC0EE811ABCEEC3
:1026C000E11A80ED011A1168C1F3066101EE101ADA
:1026D000B8EE411A31EE000A80EE801ABCEEC10A53
:1026E00080ED020A30BD04E001EE901ADFED092A08
:1026F000BAE70021016041608160F3E72844025895
:1027000000000039384402580024744A0090D00375
:102710000024744C20BCBE4B494930B5484C0B1DBD
:102720000A681C3409681D68246802F00303C5F3B5
:102730000022C1F30551C4F3CC04002914FB02F2BA
:1027400000EE102AF8EE400A75D03F4A9FED3D1A80
:10275000B7EE000A6BB1DFED3D1A012B01D0022B61
:1027600064D002EE101A1168F8EE422A81EEA22A15
:1027700021E0334C283C23689B0612D5344B246857
:1027800001EE901A1168C4F3C104F8EE612AE34027
:1027900001EE903AC1F30801F8EE611A81EEA22A27
:1027A0000BE001EE901ADFED2B2A00BFF8EE611A64
:1027B000116882EEA12AC1F3080101EE901A116896
:1027C000F8EE611A40EE811A71EE800A62EE200A7C
:1027D000C1F3462101EE101AB8EE411A31EE001A8B
:1027E000C0EE811ABCEEE11A80ED001A1168C1F347
:1027F000064101EE101AB8EE411A31EE001AC0EE91
:10280000811ABCEEE11A80ED011A1168C1F306616C
:1028100001EE101AB8EE411A31EE000A80EE801A6D
:10282000BCEEC10A80ED020A30BD04E001EE901A50
:10283000DFED092ABAE70021016041608160F3E71A
:102840002844025800000039404402580024744AC9
:102850000090D0030024744C20BCBE4B2DE9F04FF7
:10286000AC4A0546DFF8A8A280F48070DFF8AC928D
:1028700089B01311AA4C0843A748AAF104064FF0E7
:10288000805C4FF000582CD085F400770F4357D070
:10289000DFF87CB285F480670F430BF1080B61D041
:1028A00085F400670F4374D085F480570F436ED0D2
:1028B00085F400570F434FF480394FF4003E67D042
:1028C00085F400270F4371D085F480370F436ED015
:1028D00085F480460E436BD085F400420A4368D0ED
:1028E0002AE0DAF8001001F00701052924D2DFE818
:1028F00001F075BC7D25B10006A8FFF7C7FD07985C
:1029000009B0BDE8F08F6846FFF764FE0098F7E76E
:1029100003A8FFF701FF0398F2E72068C0F3C100A6
:1029200022FA00F0ECE72268D20571D561456FD13B
:102930001846E5E74145E3D00020E1E74846DFE7F8
:10294000DAF8001001F4E07180294FD004DC00298E
:1029500044D04029F0D188E0C029EFD0B1F5807F84
:10296000EAD177E0DBF8001001F46001B1F5800FE7
:102970003CD004DC91B3B1F5001FDDD175E0B1F5B9
:10298000C00FDBD0B1F5000FD6D163E001E018E055
:1029900030E0DBF8001001F0E061B1F1007F25D0FC
:1029A00008DCD9B1B1F1807FC6D15EE049E06CE0CE
:1029B00079E09CE0B1F1407FC0D0B1F1806FBBD134
:1029C00048E0DAF8001001F4E041B1F5005F0DD005
:1029D00005DC19B1B1F5805FAED146E094E0B1F508
:1029E000405FABD0B1F5804FA6D133E020688000C6
:1029F000A2D58DE7DAF8001001F4E021B1F5403FEF
:102A00006CD006DC61B149457AD0714594D157E06C
:102A100037E0B1F5802F65D0B1F5A02F8CD10CE057
:102A200000F0A6FE6CE76846FFF7D4FD019867E763
:102A300003A8FFF771FE049862E721688903F1D4C7
:102A40007AE7DBF8001011F440310ED0494510D080
:102A50007145F5D13168256801F040516D077FF56A
:102A600062AF00297FF45FAF57E720680001E7D528
:102A700049E720688000E3D503A8FFF74DFE0598DD
:102A80003EE722689203DBD554E7306810F48030CB
:102A90003AD04845D4D120680001D1D56846FFF727
:102AA00099FD02982CE7DBF8001001F0E041B1F14C
:102AB000405F13D008DC71B1614521D04145BFD1E1
:102AC00020688000B4D437E7B1F1804F0AD0B1F16B
:102AD000A04FB2D030E7FFF7C7FC11E720684007EE
:102AE000AED51AE72068C005AAD521E708E0DAF8D4
:102AF000001011F04051A0D0614505D041459FD153
:102B0000206800018FD417E72068800198D5F3E68C
:102B1000504402580090D00340787D010080BB00F3
:102B2000004402582DE9FE4F0546DFF8E48350F8D3
:102B3000081B0024F64FC943019005F128002646E2
:102B400008F12408009008011DD4A86E50B1B0F51A
:102B5000801F0CD0B0F5001F0ED0B0F5401F1ED066
:102B600001240FE0386840F40030386017E0019825
:102B7000022101F025FE03E00098022101F0B0FEE1
:102B800004000CD026462888C043C00523D4A86D75
:102B900005281ED2DFE800F00C11161B1B00AA6EE0
:102BA000D8F8001021F440111143C8F80010EAE7EA
:102BB000386840F40030386009E00198002101F0E5
:102BC000FFFD03E00098002101F08AFE044674B185
:102BD00000E0012426462888C043800528D4E86DFB
:102BE00080281ED00CDC90B140280ED114E0AA6DD4
:102BF000D8F8001021F007011143C8F80010EAE7E7
:102C0000C02813D0B0F5807F10D001240FE03868C1
:102C100040F40030386009E00198002101F0D0FD57
:102C200003E00098002101F05BFE04469CB12646BB
:102C30002888DFF8DC92C04309F12C0940052CD428
:102C4000D5F8A800B0F5800F20D00DDCA0B1B0F50C
:102C5000001F0FD115E0EA6DD8F8001021F4E071E3
:102C60001143C8F80010E3E7B0F5C00F13D0B0F57A
:102C7000000F10D001240FE0386840F400303860B5
:102C800009E00198002101F09BFD03E0009800217C
:102C900001F026FE04467CB126462888C043000584
:102CA0002DD4D5F8AC00B0F1007F21D00EDCA8B156
:102CB000B0F1807F10D116E0D5F8A820D9F8001027
:102CC00021F460011143C9F80010E6E7B0F1407F3C
:102CD00013D0B0F1806F10D001240FE0386840F4B9
:102CE0000030386009E00198002101F069FD03E03F
:102CF0000098002101F0F4FD044674B126462868CE
:102D0000C04380011FD4E86CD8B110280FD0202810
:102D100012D0302815D0012414E0D5F8AC20D9F811
:102D2000001021F0E0611143C9F80010E7E73868AE
:102D300040F40030386004E00198022101F040FDC9
:102D4000044674B126462888C043C0042BD4286E9C
:102D5000B0F5005F20D00DDCA0B1B0F5805F0FD1E1
:102D600015E06B48EA6C2030016821F03001114316
:102D70000160E8E7B0F5405F13D0B0F5804F10D0A8
:102D800001240FE0386840F40030386009E0019811
:102D9000002101F015FD03E00098002101F0A0FDE5
:102DA00004468CB126462888C043800429D4686E26
:102DB000B0F5403F23D010DC08B3B0F5803F14D00D
:102DC000B0F5003F0FD115E02A6ED8F8001021F4BD
:102DD000E0411143C8F80010E5E7B0F5802F0ED0B0
:102DE000B0F5A02F0BD001240AE00198012101F0D9
:102DF000E7FC03E00098012101F072FD044694B164
:102E000026462888C04340042AD4D5F8B000B0F143
:102E1000405F23D010DC08B3B0F1805F14D0B0F174
:102E2000005F0FD115E06A6ED8F8001021F4E021A0
:102E30001143C8F80010E4E7B0F1804F0ED0B0F1B4
:102E4000A04F0BD001240AE00198012101F0B8FC49
:102E500003E00098012101F043FD044674B12646C9
:102E60002888C04300041FD4286FD8B1B0F1805F18
:102E70000ED0B0F1005F10D0012414E0D5F8B020DE
:102E8000D9F8001021F0E0411143C9F80010E7E73C
:102E9000386840F40030386004E00198012101F006
:102EA0008FFC044674B126462868C043C0011ED476
:102EB000A86CD0B101280ED0022811D0032814D05C
:102EC000012413E02A6FD8F8001021F0405111437B
:102ED000C8F80010E8E7386840F40030386004E0D3
:102EE0000198022101F06CFC0446ACB1264628682A
:102EF000DFF81CB0C043ABF11C0B400252D40548B4
:102F0000016841F480710160FFF78CF9824611E09D
:102F10002C44025800480258FA48AA6C016821F073
:102F2000030111430160E2E7FFF77CF9A0EB0A001F
:102F3000642835D8F4480068C005F5D58CBBDFF8A7
:102F4000C4A3B5F8B4100AF1240ADAF8000001F4B9
:102F5000407100F44070884211D0DAF80010DAF8BD
:102F6000002021F4407142F48032CAF80020DAF8DF
:102F7000002022F48032CAF80020CAF80010D5F8E8
:102F8000B400B0F5807F1AD1FFF74CF9029012E03F
:102F9000FFF748F90299411A41F2883081420AD973
:102FA000032426462878DFF85CA3C0430AF1080A08
:102FB000C00721D03CE0DAF800008007E8D5D5F85A
:102FC000B410C1F30120032858460DD0016821F444
:102FD0007C510160B5F8B420DAF80010C2F30B029E
:102FE0001143CAF80010DDE7C84A036802EA11126B
:102FF00023F47C511143ECE7E86F182816D005DC68
:10300000A0B1082808D0102804D10AE020280DD04B
:1030100028280BD001240AE00198012101F0D0FBFF
:1030200003E00098012101F05BFC044664B12646F0
:103030002878C04380071ED4A86F062819D2DFE87D
:1030400000F0160C11161616EA6FDAF8001021F0CF
:1030500038011143CAF80010EAE70198012101F094
:10306000AFFB03E00098012101F03AFC04467CB17B
:1030700000E0012426462878C04340071FD4D5F835
:103080009400062819D2DFE800F0160C1116161667
:10309000AA6FDAF8001021F007011143CAF80010F6
:1030A000E9E70198012101F08BFB03E00098012181
:1030B00001F016FC0446A4B100E00124264628785D
:1030C000C04380062BD4D5F89000B0F1405F24D0E7
:1030D00011DC10B3B0F1805F15D0B0F1005F10D1FA
:1030E00016E0D5F89420D9F8001021F0070111431B
:1030F000C9F80010E3E7B0F1804F0ED0B0F1A04F57
:103100000BD001240AE00198002101F059FB03E0F3
:103110000098022101F0E4FB044694B12646287889
:10312000C04340062BD4D5F89C00B0F5406F24D0A6
:1031300011DC10B3B0F5806F15D0B0F5006F10D171
:1031400016E0D5F89020DAF8001021F0E0411143A4
:10315000CAF80010E3E7B0F5805F0ED0B0F5A05FCD
:103160000BD001240AE00198002101F029FB03E0C3
:103170000098022101F0B4FB044694B12646287859
:10318000C04300062BD4D5F8A000B0F5C04F24D022
:1031900011DC10B3B0F5005F15D0B0F5804F10D141
:1031A00016E0D5F89C20D9F8001021F4E051114325
:1031B000C9F80010E3E7B0F5004F0ED0B0F5204F8E
:1031C0000BD001240AE00198002101F0F9FA03E094
:1031D0000098022101F084FB044654B12646287869
:1031E000C04300071ED4D5F88400B0F5805F0AD034
:1031F0000FE0D5F8A020D9F8001021F46041114368
:10320000C9F80010EBE70098022101F069FB00B15A
:103210000126D5F88420DAF8001021F4405111433A
:10322000CAF800102878C043C00613D4D5F8980017
:10323000B0F5807F05D10098022101F051FB00B16B
:103240000126D5F89820D9F8001021F440711143D7
:10325000C9F800102868C043000316D4D5F8A400AC
:1032600038B1B0F5803F09D0B0F5003F0BD0012454
:103270000AE00198002101F0A3FA03E0009802217E
:1032800001F02EFB04468CB126462868C04340035B
:1032900022D4D5F88800B0F5801F11D0B0F5001FFA
:1032A00013D0B0F5401F15D0012414E0D5F8A420A8
:1032B000D9F8001021F440311143C9F80010E4E7B7
:1032C000386840F40030386004E00098012101F0D3
:1032D00007FB04465CB126462868C043C00323D4DC
:1032E000286DA8B1B0F5803F17D001241BE0D5F8B8
:1032F0008820DAF8001021F440111143CAF80010B8
:10330000EAE700004C44025800480258CFFFFF0093
:10331000386840F40030386004E00198022101F080
:103320004FFA0446E4B126462868C043800005D41D
:103330000098022101F0D4FA00B101262868C043A8
:1033400080031BD4D5F88000B0B1B0F5807F0FD0DA
:10335000B0F5007F10D0B0F5407F0DD001240CE017
:103360005A482A6D016821F4803111430160DBE77E
:10337000386840F400303860ECB326462868C04313
:10338000C00207D46A6FD8F8001021F00041114341
:10339000C8F800102868C043C00008D4D5F8B82089
:1033A000DBF8001021F480411143CBF800102868AD
:1033B000C043800207D4EA6ED8F8001021F0807173
:1033C0001143C8F800102868C04340000CD4DBF853
:1033D000001021F40041CBF80010DBF80010D5F804
:1033E000BC201143CBF800102868C04308D43748EC
:1033F0006A6D016800E018E021F04051114301605E
:103400002868C043000208D4D5F88C20DAF80010F0
:1034100021F440011143CAF8001028790024C04368
:1034200000F0010020430AD00FE0D5F88020DAF840
:10343000001021F440711143CAF800109EE7019872
:10344000002101F0BDF900B106462879C04300F023
:103450000200204305D10198012101F0B1F900B12A
:1034600006462879C04300F00400204305D10198A6
:10347000022101F0A5F900B106462879C04300F009
:103480000800204305D10098002101F029FA00B17D
:1034900006462879C04300F01000204305D100986B
:1034A000012101F01DFA00B106462879C04300F061
:1034B0002000044304D10098022101F011FA00B960
:1034C00016B10120BDE8FE8F0020FBE74C440258F6
:1034D0002DE9F05F04000F467ED0DFF83882D8F87F
:1034E000000000F00F00B8420CD2D8F8001021F014
:1034F0000F013943C8F80010D8F8000000F00F00A1
:10350000B84269D12078844D40070AD520692968DE
:1035100001F07001884204D9296821F0700101434B
:10352000296020787C4E361D00070AD56069316815
:1035300001F07001884204D9316821F07001014323
:1035400031602078C0060AD5A069316801F4E061D5
:10355000884204D9316821F4E06101433160207868
:10356000DFF8B4B180060BF1080B0CD5E1695846C1
:10357000DBF8002002F07002914204D9026822F0C8
:1035800070020A430260207880070AD5E068296843
:1035900001F00F01884204D9296821F00F0101438D
:1035A00029602078C0073ED05B49A2682868183996
:1035B00020F47060104328606068022818D0032847
:1035C00019D00968012819D0490700294ADADFF81B
:1035D00048A1AAF1080A00E044E0DAF8002022F04D
:1035E00007020243CAF80020FEF71CFE814612E0E3
:1035F00009688903E9E709688901E6E7C905E4E79D
:10360000FEF710FEA0EB090141F28830814202D999
:103610000320BDE8F09F6168DAF8000000F0380090
:10362000B0EBC10FECD1207880070AD5E06829689B
:1036300001F00F01884204D2296821F00F010143F3
:103640002960D8F80010404601F00F01B9420BD9AB
:10365000016821F00F0139430160006800F00F009C
:10366000B84201D00120D4E7207840070AD520696C
:10367000296801F07001884204D2296821F07001A4
:1036800001432960207800070AD56069316801F09C
:103690007001884204D2316821F070010143316029
:1036A0002078C0060AD5A069316801F4E06188423B
:1036B00004D2316821F4E061014331602078800652
:1036C0000CD5E1695846DBF8002002F07002914207
:1036D00004D2026822F070020A43026000F06CF823
:1036E0000E492A682B68C2F3032203F00F038A5C99
:1036F000C95C02F01F0201F01F01D040084A20FA05
:1037000001F111600749086007480068BDE8F05FF3
:10371000FEF7C4BD0020005218440258725C000835
:10372000300000242C0000242400002430B500F0D8
:1037300043F80B4A0B490C4B15681468C5F3032278
:1037400004F00F048A5C095D02F01F0201F01F0102
:10375000D040064A20FA01F119601060084630BDD9
:1037600018440258725C0008300000242C00002429
:1037700000B5FFF7DBFF05490968054AC1F30211EF
:10378000515C01F01F01C84000BD00001C440258FC
:10379000725C000800B5FFF7C9FF05490968054AD2
:1037A000C1F30221515C01F01F01C84000BD0000BF
:1037B0001C440258725C0008454970B545480968C8
:1037C000434B103B11F0380208D00111082A03D0F6
:1037D000102A0BD0182A0BD0084670BD196889062C
:1037E000FBD51968C1F3C101C84070BD3A4870BD2E
:1037F0003749374D18310C1D24350A680968266889
:103800002D6802F0030406F00102C1F30511C5F3AF
:10381000CC0515FB02F200EE102AB8EE400AE9B31F
:103820002F4ADFED2E0AB7EE001A6CB1DFED2D1A2C
:10383000012C01D0022C43D002EE101A1068F8EED1
:10384000422A81EEA22A1EE01C68A40611D51B683C
:1038500001EE901A1168C3F3C103F8EE612AD84053
:1038600001EE900AC1F30800F8EE611A81EEA22A77
:103870000BE001EE901ADFED1C2A00BFF8EE611A92
:10388000106882EEA12AC0F3080001EE900AF8EE5B
:10389000611A40EE201A31EE810A00E015E022EEB6
:1038A000000A1068C0F34620401C00EE900AF8EEB3
:1038B000600A80EE201ABCEEC10A10EE100A70BD3C
:1038C00001EE901ADFED092AD8E7002070BD000054
:1038D000104402580090D00340787D010000003968
:1038E000304402580024744A0024744C20BCBE4B5F
:1038F0002DE9F05F04007DD0FF4F2078FE4D183792
:10390000DFF8F493103DC00748D0D9F800003968BB
:1039100000F03800102815D0182803D101F003005A
:1039200002280FD06068B0F5803F12D010B1B0F51A
:10393000A02F18D0286820F480302860286820F450
:10394000802009E02868800328D560680028D2D04C
:1039500024E0286840F480302860606888B1FEF771
:1039600061FC064609E0286840F480202860F0E702
:10397000FEF758FC801B64286FD828688003F7D5B1
:103980000CE0FEF74FFC064605E000BFFEF74AFCE0
:10399000801B6428F0D828688003F7D4207841F28F
:1039A0000308D54E0C3E800769D5D9F80000396868
:1039B00010F038000ED0182801D188070AD0E0682E
:1039C00090B3296821F0190101432960FEF72AFC10
:1039D000824631E02868400702D5E06800288AD096
:1039E000E168286820F0190008432860FEF71AFCF7
:1039F000824607E0DFE000BFFEF714FCA0EB0A0000
:103A00000228B9D828684007F6D500BFFEF704FCA5
:103A100040451BD82069402812D0316821F47C3100
:103A200041EA003030602AE018E000BFFEF7FAFB00
:103A3000A0EB0A0002289FD828684007F6D5E5E7E2
:103A4000306820F47C3040F40030EBE7207C3168B3
:103A500021F0FE4141EA0060E4E70DE1286820F032
:103A600001002860FEF7DEFB824605E0FEF7DAFB88
:103A7000A0EB0A0002288DD828684007F6D42078E9
:103A8000C0065DD5D9F80000DFF86CB2396800F0E7
:103A90003800ABF1040B082810D0182803D101F02E
:103AA000030001280AD0E0690028286838D040F0D7
:103AB00080002860FEF7B6FB824623E02868C00538
:103AC00023D5E069802876D11FE0206A202821D004
:103AD000316821F0F84141EA8060306030E000BF99
:103AE00094F82010DBF8002022F07C5242EA0161B9
:103AF000CBF8001024E000BFFEF794FBA0EB0A0017
:103B0000022898D82868C005F6D5FEF785FB404501
:103B1000E6D8DAE7306820F0F84040F08040DCE793
:103B200020F080002860FEF77DFB064605E000BF20
:103B3000FEF778FB801B02289DD82868C005F7D4C3
:103B40002078000729D56C486169643000298046D7
:103B5000016811D041F001010160FEF763FB0646E8
:103B600005E000BFFEF75EFB801B0228C9D8D8F82D
:103B700000008007F6D510E021F001010160FEF79A
:103B800051FB064605E000BFFEF74CFB801B0228F8
:103B900072D8D8F800008007F6D42078800623D5A4
:103BA000A0690028286810D040F480502860FEF7F3
:103BB00039FB064605E036E1FEF734FB801B0228A0
:103BC0005AD828688004F7D50EE020F48050286089
:103BD000FEF728FB064604E0FEF724FB801B0228C4
:103BE0004AD828688004F7D4207840074FD5DFF8FA
:103BF0000C81D8F8001041F48071C8F80010FEF76D
:103C000011FB064605E000BFFEF70CFB801B642895
:103C100032D8D8F80000C005F6D5374EA068603617
:103C200001280AD008B1052813D0306820F001001F
:103C30003060306820F0040002E0306840F001009D
:103C40003060A06841F2883A90B1FEF7EBFA804606
:103C50000AE0306840F004003060EEE7FEF7E2FA78
:103C6000A0EB0801514507D830688007F6D50EE073
:103C7000FEF7D8FA804607E084E000BFFEF7D2FAEC
:103C8000A0EB080151457DD830688007F6D4606A02
:103C9000B0B3DFF86480D9F8001008F120084FF6BF
:103CA000F87B08F10409C1F3C2010329A8F1040A51
:103CB00069D00228286820F08070286003D0FEF7C1
:103CC000B1FA044684E0FEF7ADFA064605E000BF0F
:103CD000FEF7A8FA801B022877D828688001F7D45D
:103CE000E26A40F2F331386854F8283F884340EAEA
:103CF00002101843386004E010440258004802588B
:103D0000B5E0217B434622894FF4FE0C208A4FF018
:103D1000FE474902267D521E401EA1F50071C2F3E6
:103D200008088AB2761E0CEA004042EA0802024302
:103D3000504607EA06610A431A60DAF8002022F0CA
:103D40000102CAF80020D9F80020266A22EA0B02F4
:103D500042EAC602C9F80020DAF80010A26921F090
:103D60000C011143CAF800100168E26921F0020158
:103D700011430160016841F480310160016841F440
:103D8000003101E021E027E00160016841F4802179
:103D90000160016841F001010160286840F0807015
:103DA0002860FEF73FFA044605E000BFFEF73AFA46
:103DB000001B022809D828688001F7D557E000BF0A
:103DC000FEF730FA001B022802D90320BDE8F09F5D
:103DD00028688001F4D44AE039680128D8F8000046
:103DE00021D0A26A01F0030393421CD1E26AC1F31D
:103DF00005118A4217D1216BC0F30802491E8A427D
:103E000011D1616BC0F34622491E91420BD1A16BC7
:103E1000C0F30642491E914205D1E16BC0F3066032
:103E2000491E814201D00120D0E7A16C4E46D9F84D
:103E30000000C0F3CC00814219D0DAF800005546EA
:103E400020F00100CAF80000FEF7ECF94FEA000785
:103E5000FEF7E8F9B842FBD0A26C306820EA0B000C
:103E600040EAC2003060286840F00100286000206D
:103E7000ACE7401EB0F1807F10B501D3012010BD2A
:103E80004FF0E02460610F21601701F0A8FD0020D1
:103E9000A0610721216110BD30B590F8841001297F
:103EA00018D0012280F884202421C0F88810002234
:103EB000202401680B680D6823F0005325F00105EC
:103EC0000D60426601680B60C0F8884080F884206D
:103ED000104630BD022030BD7047704770B50446B3
:103EE00090F8840001281DD0012284F88420242029
:103EF000C4F8880020680568026822F001020260A8
:103F00002068826822F060620A438260204600F0E6
:103F1000E7FE2268202100201560C4F8881084F88C
:103F2000840070BD022070BD70B5044690F8840016
:103F300001281DD0012284F884202420C4F88800A0
:103F400020680568026822F0010202602068826829
:103F500022F060420A438260204600F0C1FE2268DF
:103F6000202100201560C4F8881084F8840070BDFA
:103F7000022070BD70477047704700002DE9F04186
:103F800007680025044640F60F030226F8693968E1
:103F9000BA6818420AD183067ED501F0200302F0E8
:103FA000805C53EA0C0377D0616F7EE1D44BDFF87D
:103FB00054C3134001EA0C0C53EA0C0C6CD05FEABA
:103FC000C07C0CD05FEAC15C09D54FF0010CC7F88A
:103FD00020C0D4F8907047F00107C4F890708707AC
:103FE00009D5D70707D027683E62D4F8906046F01D
:103FF0000406C4F8906046070AD5D60708D027689B
:1040000004263E62D4F8906046F00206C4F8906040
:1040100006070CD501F020061E4308D026680823A9
:104020003362D4F8903043F00803C4F890300305AD
:104030000BD54B0109D526684FF400633362D4F8E1
:10404000903043F02003C4F89030D4F89030002B27
:104050003DD0800609D501F0200002F080510843D0
:1040600003D0616F09B1204688472168D4F89000D9
:104070008968490602D410F0280F2AD0204600F0A3
:104080000FFF2068806840061ED52068083050E881
:10409000001F21F0400100E021E040E80012002A6A
:1040A000F3D1D4F8800078B197490165D4F8800045
:1040B000FDF778FE00280AD0D4F88000016D00E0FA
:1040C0002046BDE8F04108472046FFF755FFBDE810
:1040D000F0812046FFF750FFC4F89050F7E7D4F87E
:1040E0006CC02023BCF1010F7ED15FEAC06C7BD590
:1040F0005FEAC16C78D5102038622068806840067D
:1041000073D5D4F8802081491068884234D07F4923
:104110001831884230D07D49303188422CD07B49DB
:104120004831884228D079496031884224D0774983
:104130007831884220D07549903188421CD073492B
:10414000A831884218D07249884215D07049183178
:10415000884211D06E49303188420DD06C494831C7
:10416000884209D06A496031884205D0684978316F
:10417000884201D06649903140684FF4807700044E
:10418000000C40D0B4F85C1081423CD9A4F85E0029
:10419000D069B8422FD0216851E8000F20F4807018
:1041A00041E80002002AF6D12068083050E8001FDC
:1041B00021F0010140E80012002AF5D12068083002
:1041C00050E8001F21F0400140E80012002AF5D11C
:1041D000C4F88C30E566206850E8001F21F010011B
:1041E00040E80012002A01E04AE019E0F3D1D4F8D7
:1041F0008000FDF727FC2667B4F85C00B4F85E1079
:10420000401A81B208E0B4F85C1081427FF466AFD6
:10421000D069B842FAD126672046FFF75DFE56E71F
:10422000B4F85C00B4F85E10B4F85E20401A81B2B5
:10423000002AF4D00029F2D0226852E8000F20F4BE
:10424000907042E80007002FF6D1324F206800F14D
:10425000080050E8002F02EA070240E8002CBCF1F9
:10426000000FF3D1C4F88C30E5666567226852E828
:10427000000F20F0100042E80003002BF6D1CAE73F
:10428000C60209D5560207D54FF480103862204681
:10429000BDE8F041FFF76FBE06060AD501F08006C3
:1042A00002F40002164304D0A16F00297FF408AF86
:1042B0000DE7420611D54A060FD52046016851E8A0
:1042C000002F22F0400241E80024002CF6D1C0F873
:1042D0008830856700F064F9F9E6020206D54A00E5
:1042E00004D52046BDE8F041FFF744BEC00196D595
:1042F000002994DA2046BDE8F041FFF7EEBD00004A
:104300000100001020010004974E00081000024038
:1043100010040240FEFFFFEF10B5040003D0D4F8F4
:10432000880010B107E0012010BD002084F884004F
:10433000204600F027F82420C4F88800206801688F
:1043400021F001010160A06A10B1204600F0EAFCF2
:10435000204601F037F80128E6D02068416821F4B2
:10436000904141602068816821F02A0181602068C5
:10437000016841F0010101602046BDE8104000F0F5
:1043800035BD000010B5B6B00446142130A8FCF7C6
:104390004DF9C0216846FCF749F91C49206888425C
:1043A00032D100201E9002210446CDE9001068465B
:1043B000FEF7B8FB08B1FCF7A9FD1548016841F408
:1043C00000310160006800F4003035901048083872
:1043D000016841F001010160006830AB022100F08A
:1043E000010035900C20072283E81300094830A90A
:1043F000CDE93342FDF7F6FD032226201146FDF7F5
:10440000D7FF2620FDF7C6FF36B010BD00440040A0
:10441000E84402580000025830B4D0F88C30202B09
:1044200002D0022030BC7047A9B1A2B10B4D0024CC
:104430000368C466AB420BD05B681B0208D50468F6
:1044400054E8003F43F0806344E80035002DF6D186
:1044500030BC01F08DB90120E4E70000000C0058E9
:10446000F0B400681C49884233D11C4801241C4D1B
:104470000021024686789379527826B1C678B6B183
:10448000AA2B10D011E012B1012A05D009E0AA2B05
:1044900007D12B70447015E0552B02D14170847008
:1044A00003E041700EE004718170C1700AE0552B89
:1044B00004D00E2A04D2511CAB54F2E7C47001E0C0
:1044C0004170817001220549F0BC0648891DFFF743
:1044D000A3BFF0BC70470000004400400C00002463
:1044E0000C050024A00000242DE9F84F0446D0F864
:1044F0008800984615460E46202802D00220BDE8C6
:10450000F88F96B38DB300214FF02109C4F89010B5
:10451000C4F888901834FDF785FE824654F8100CD4
:10452000A587E587183CB0F5805F01D1206910B1FF
:104530003546002600E000255FF02007B4F856005D
:1045400053464FF00002CDF80080E0B180212046B4
:1045500001F096F9E0B955B115F8010B21688862B0
:10456000D4F8881039EA010007D00120C7E736F8EF
:10457000020B2168C0F30800F1E7B4F85600401EB2
:10458000A4F85600DAE74021204601F079F918B185
:10459000C4F888700320B2E7C4F888700020AEE742
:1045A0007047FEE72DE9F047FCF75AF9364E4FF415
:1045B0008010364D4FF4805804114201C301B4619C
:1045C00004012A60B3612C602860B061C6F81880CD
:1045D0000520FDF7F5FC2701B7612F60002001F0F1
:1045E000FBFADFF8AC90002419F8040001F0F4FAAB
:1045F000641CE4B2042CF7D300204446C5F80080C4
:10460000401CC0B20A28FBD3B8462F60012001F03D
:10461000E3FADFF87C90002709F1040919F8070094
:1046200001F0DAFA7F1CFFB2042FF7D300202C60D0
:10463000401CC0B20A28FBD3C5F80080022001F05C
:10464000CBFADFF84C80002708F1080818F80700BB
:1046500001F0C2FA7F1CFFB2042FF7D300202C60B8
:10466000401CC0B20A28FBD38021B1610020401C4D
:10467000C0B20A28FBD34FF40000B061BDE8F04798
:104680000120FDF79DBC00000000025818040258EC
:10469000825C00088068C0F3C00070478068C0F387
:1046A000800070478068C0F380007047C06810F4D5
:1046B000406F01D0002070470120704770B58AB06C
:1046C000002468461C21079408940994FBF7AEFF68
:1046D0001E4801211C4A04258B0480E81C00C0E907
:1046E0000345047541758161047744628462C46244
:1046F0000463446380F83840C163FCF70DFF08B1E0
:1047000072B6FEE7114807A90794FCF75DFC08B1F3
:1047100072B6FEE70E480621052240F2FF76CDE98B
:1047200004548DE84700094869468DF81940FCF7A4
:10473000DFFC08B172B6FEE7044800223146FCF700
:10474000F5FB0AB070BD0000002002403C000024D0
:104750000800900C1748002110B5154C0C224FF49E
:10476000E1330460C0E90131C160C0E90412816134
:10477000C161016241628162FFF7CEFD08B172B68C
:10478000FEE70C480021FFF7CFFB08B172B6FEE749
:1047900008480021FFF7A2FB08B172B6FEE7054802
:1047A000FFF77AFB002801D072B6FEE710BD0000CB
:1047B00000440040A0000024FEE7FEE77047000030
:1047C0002DE9F047454D044689464FF0000A286818
:1047D000C04380070AD0414E283E306820F08060F8
:1047E0003060FDF71FFD0746B04608E00120BDE838
:1047F000F08700BFFDF716FDC01B022867D8D8F868
:1048000000000001F6D4206829684FF4FE0721F467
:104810007C313E0241EA00302860207AA389B4F856
:1048200004C040022D4D2D495B1E227CACF1010CD1
:104830001035091DA0F5007080B2521ECCF3080C93
:1048400007EA034340EA0C00184306EA02621043F9
:1048500028600868626920F0C000104308600A6898
:10486000A06922F0200202430A60281D0A6822F093
:1048700010020A6002684FF6F873E4699A4342EA4C
:10488000C40202600868B9F1000F40F010020A602B
:1048900011D00868B9F1010F11D040F40010086080
:1048A000D8F80000444640F08060C8F80000FDF7EA
:1048B000B9FC05460DE0086840F40020EFE740F43D
:1048C0008010ECE7FDF7AEFC401B022801D9032065
:1048D0008DE720680001F5D5504688E72844025846
:1048E0002DE9F047454D044689464FF0000A2868F7
:1048F000C04380070AD0414E283E306820F08050E7
:104900003060FDF78FFC0746B04608E00120BDE8A7
:10491000F08700BFFDF786FCC01B022867D8D8F8D7
:1049200000008000F6D4208829684FF4FE0721F0AB
:104930007C713E0241EA00502860207AA389B4F8D5
:1049400004C040022D4D2D495B1E227CACF1010CB0
:104950001835091DA0F5007080B2521ECCF3080C6A
:1049600007EA034340EA0C00184306EA02621043D8
:1049700028600868626920F44060104308600A6893
:10498000A06922F4007202430A60281D0A6822F41A
:1049900080720A6002684FF6F873E4699A4342EA4B
:1049A000C40202600868B9F1000F40F480720A6026
:1049B00011D00868B9F1010F11D040F08070086083
:1049C000D8F80000444640F08050C8F80000FDF7D9
:1049D00029FC05460DE0086840F48000EFE740F44C
:1049E0000000ECE7FDF71EFC401B022801D9032064
:1049F0008DE720688000F5D5504688E728440258A6
:104A0000704700002DE9F041DFF8D0800121002738
:104A10002DED028B88B088F80010DFED318A314827
:104A20004FF47A763C4607703046FBF7FBFE1420C5
:104A3000FDF7C6FA5FF00005B0EE688AFBF750FF9D
:104A40000A2030EE088AFDF7BBFA6D1CEDB2032D8B
:104A5000F4D3B0EE081ADFED240A88EE010A2348E9
:104A600023A100EB840080ED000A60EE200A684676
:104A7000BCEEE00A10EE102AFBF702FD684601F0DA
:104A8000D5F8FF2001F0C6F8FF2001F0C3F8FF20A1
:104A900001F0C0F819A132466846FBF7F1FC684600
:104AA00001F0C4F8FF2001F0B5F8FF2001F0B2F8E2
:104AB000FF2001F0AFF8641CA4B2C8364FF4C870F0
:104AC000FDF77EFAF62CAFD3FCF7D6F888F8007025
:104AD00008B0BDEC028BBDE8F08100001C00002492
:104AE000000000000C00002400007A44340100247F
:104AF0006E352E76616C3D256C7500006E302E761D
:104B0000616C3D256C750000FDF792BB30B59DB022
:104B10004C216846FBF78AFD202113A8FBF786FD90
:104B20000220FDF777FC1D490A681D4822F00102AA
:104B30000A600968016821F4404141F48041016044
:104B40000168002401F440411B9101688904FCD5EF
:104B50001448402502680221012322F0030202606A
:104B6000099468460091CDE90335FEF7C1FE08B10E
:104B700072B6FEE73F20CDE9130415940121169487
:104B800013A8CDE9174519941A94FEF7A1FC002843
:104B900001D072B6FEE71DB030BD00002C040058F5
:104BA00018480258284402583348F0B5334A01687F
:104BB00041F470010160106800F00F00072804D272
:104BC000106820F00F00C01D10602D4900202C4CF3
:104BD00010340B682B4D43F001030B6020600B6811
:104BE0002B400B60136803F00F03072B04D91368E5
:104BF00023F00F03DB1D1360214C234A1834234B91
:104C0000261D371D20601E4C214D28343060261D86
:104C10003860371D23603B1D35601C1D3A60251D23
:104C20002E1D1860331D22602860326018600A68EB
:104C3000134B184C22F4802260330A6018602068FD
:104C40006FF30F00B0F1005F03D213490120C1F8E8
:104C500008010B48D4300168C9040BD4026843F240
:104C6000D2010E4B42F4805202601960016821F4B7
:104C700080510160F0BD000088ED00E0002000528E
:104C8000004402587FEDF6EA8002010100020202B0
:104C90000000FF010010005C008000510040005245
:104CA00070B50C4D4FF0805028600E2000F094FF3E
:104CB000094E0024305D00F08FFF641CE4B2082C24
:104CC000F8D3064880224FF4805129608301826125
:104CD000836170BD1804025834000024000002589B
:104CE00030B5416EB9B101680D4B03F108048A6813
:104CF0008968C2F34262490F5D5C615C2D01B5FBBE
:104D0000F1F1A0F86A10995CA25C0901B1FBF2F123
:104D1000A0F8681030BD0121A0F86A10F8E7000083
:104D2000625C000890F82810090706D50168836BBB
:104D30004A6822F400421A434A6090F82810C907D2
:104D400006D00168C36A4A6822F400321A434A60F6
:104D500090F82810890706D50168036B4A6822F489
:104D600080321A434A6090F82810490706D5016836
:104D7000436B4A6822F480221A434A6090F8281054
:104D8000C90606D50168C36B8A6822F480521A43AB
:104D90008A6090F82810890606D50168036C8A6835
:104DA00022F400521A438A6090F82810490611D55F
:104DB0000168436C4A6822F480121A434A60416CCD
:104DC000B1F5801F06D10168836C4A6822F4C002E5
:104DD0001A434A6090F82810090606D50168C26C8B
:104DE000486820F400201043486070472DE9F843DC
:104DF00000250446C0F89050FDF714FA804620685C
:104E000020266FF07E470068000713D50022434636
:104E100031042046009700F033FD58B1216851E875
:104E2000000F20F0800041E80002002AF6D1C4F80B
:104E3000886021E020680068400722D500224346B0
:104E40004FF480012046009700F01AFDC8B1206899
:104E500050E8001F21F4907140E80012002AF6D1BA
:104E60002068083050E8001F21F0010140E80012DE
:104E7000002AF5D1C4F88C60032084F88450BDE882
:104E8000F883C4F88860C4F88C60E5662567002064
:104E900084F88450F3E710B5806BFFF76DF810BD10
:104EA00010B5026852E8001F21F4907142E8001327
:104EB000002BF6D10E4B0268083252E8001F194051
:104EC00042E80014002CF6D1C16E012908D1026815
:104ED00052E8001F21F0100142E80013002BF6D128
:104EE00000212022C0F88C20C166416710BD00005F
:104EF000FEFFFFEF10B5D0F88C10B0F8602022292B
:104F0000016804D0886940F00800886110BD496AD2
:104F1000836D11401980816D891C8165B0F85E1028
:104F2000491EA0F85E10B0F85E100029EED10168AD
:104F300051E8002F22F4907241E80023002BF6D1B3
:104F40000168083151E8002F22F0010241E80023F6
:104F5000002BF5D1184B002102682024C0F88C40AA
:104F6000416701679A420BD05268120208D5036864
:104F700053E8002F22F0806243E80024002CF6D191
:104F8000C26E012A02D0FFF76BFA10BDC16602683B
:104F900052E8001F21F0100142E80013002BF6D167
:104FA0000168CA69D243D20601D410220A62B0F85D
:104FB0005C10FEF791FF10BD000C00582DE9F04782
:104FC00004460068C569D0F800A0D0F80890D4F86D
:104FD0008C10B4F86060222905D0816941F0080185
:104FE0008161BDE8F087B4F868704FF0000844E0D4
:104FF0002068A16D406A30400880A06D801CA065CB
:10500000B4F85E00401EA4F85E002068C569690718
:1050100030D0E9070AD05FEACA5107D50121016201
:10502000D4F8900040F00100C4F89000A8070BD518
:105030005FEAC97008D0216802200862D4F89000A5
:1050400040F00400C4F8900068070BD55FEAC9700F
:1050500008D0216804200862D4F8900040F00200D3
:10506000C4F89000D4F8900020B12046FEF784FFE9
:10507000C4F89080B4F85E0000B30FB1A806B7D4AE
:10508000B4F85E000028ACD0B4F868108142A8D90A
:105090002068083050E8001F21F0805140E80012DD
:1050A000002AF5D12A486067216851E8000F40F0D6
:1050B000200041E80002002AF6D192E7216851E879
:1050C000000F20F4807041E80002002AF6D1214A46
:1050D0002068083050E8001F114040E80013002B02
:1050E000F6D11D4A202321684046C4F88C30C4F80C
:1050F0007480C4F8708091420BD04968090208D5C9
:10510000226852E8001F21F0806142E80013002B62
:10511000F6D1E16E012903D02046FFF7A1F9AFE7F0
:10512000E066216851E8000F20F0100041E800021D
:10513000002AF6D12068C169C943C90601D41021EB
:105140000162B4F85C102046FEF7C6FE98E7000046
:10515000F54E0008FEFFFFEF000C005810B5D0F828
:105160008C10B0F860202229016804D0886940F0D2
:105170000800886110BD496A836D11401970816D06
:10518000491C8165B0F85E10491EA0F85E10B0F8A9
:105190005E100029EED1026852E8001F21F49071E0
:1051A00042E80013002BF6D10168083151E8002FC6
:1051B00022F0010241E80023002BF5D1184B002119
:1051C00002682024C0F88C40416701679A420BD0E6
:1051D0005268120208D5026852E8003F23F080634B
:1051E00042E80034002CF6D1C26E012A02D0FFF74B
:1051F00037F910BDC166026852E8001F21F01001A6
:1052000042E80013002BF6D10168CA69D243D206E6
:1052100001D410220A62B0F85C10FEF75DFE10BDEA
:10522000000C00582DE9F04704460068C569D0F825
:1052300000A0D0F80890D4F88C10B4F8606022294F
:1052400005D0816941F008018161BDE8F087B4F8BB
:1052500068704FF0000844E02068A16D406A30405B
:105260000870A06D401CA065B4F85E00401EA4F854
:105270005E002068C569690730D0E9070AD05FEA97
:10528000CA5107D501210162D4F8900040F0010015
:10529000C4F89000A8070BD55FEAC97008D0216850
:1052A00002200862D4F8900040F00400C4F8900096
:1052B00068070BD55FEAC97008D02168042008622E
:1052C000D4F8900040F00200C4F89000D4F89000A8
:1052D00020B12046FEF750FEC4F89080B4F85E007E
:1052E00000B30FB1A806B7D4B4F85E000028ACD064
:1052F000B4F868108142A8D92068083050E8001F2F
:1053000021F0805140E80012002AF5D12A48606758
:10531000206850E8001F41F0200140E80012002AF8
:10532000F6D192E7216851E8000F20F4807041E83F
:105330000002002AF6D1214A2068083050E8001FF8
:10534000114040E80013002BF6D11D4A20232168AC
:105350004046C4F88C30C4F87480C4F87080914220
:105360000BD04968090208D5226852E8001F21F0D5
:10537000806142E80013002BF6D1E16E012903D0D1
:105380002046FFF76DF8AFE7E066206850E8001FA1
:1053900021F0100140E80012002AF6D12068C1690E
:1053A000C943C90601D410210162B4F85C1020463B
:1053B000FEF792FD98E700005D510008FEFFFFEF49
:1053C000000C00582DE9F04304468068D84E87B0A1
:1053D000D84B2168D4E90427D4F81CC010430A68CC
:1053E000002547EA0C073843324002430A60206830
:1053F000E268416821F44051114341602268A1698B
:105400009A4201D0206A01439768DFF82CC3CB4E43
:10541000CB4807EA0C070F4397602168676ACA6A9E
:1054200022F00F023A43CA622268B2420ED10068EB
:1054300000F03800182873D047DCB8B3082879D0BA
:1054400010286FD178E028287ED17BE0BD498A42C0
:1054500009D1006800F00700062875D2DFE800F0E7
:10546000546A6C6E7072B8498A4209D1006800F0C3
:105470000700062868D2DFE800F0475D5F616365DA
:10548000B2498A4209D1006800F0070006285BD2C1
:10549000DFE800F03A5052545658AD498A420BD1D9
:1054A000006800F0070006284ED200E010E0DFE8B8
:1054B00000F02B4143454749A6498A420AD100687A
:1054C00000F03800182839D0B7DD2028BBD13CE0E7
:1054D00001203AE0A0498A4209D1006800F00700A3
:1054E000062831D2DFE800F01026282A2C2E9B490E
:1054F0008A420BD1006800F00700062824D2DFE8BA
:1055000000F003191B1D1F2100201EE09A421BD131
:105510008B48001D006800F00700062814D202E046
:105520000CE007E010E0DFE800F0030507090B0DD1
:1055300002200AE0042008E0082006E0102004E031
:10554000202002E0402000E080208549DFF814821E
:105550009A42854A4FF400434FEA21174FF0000664
:105560004ED110281AD006DC022809D004280BD00E
:1055700008287CD10DE020283ED0402877D13DE09E
:10558000FCF772FF014610E06846FDF723F8019929
:105590000BE003A8FDF7C0F8049906E01068800648
:1055A00005D51068C0F3C100C140002970D0606A01
:1055B000676838F8102007EB4703B1FBF2F083422D
:1055C00055D8B0EB073F52D8002308461946FAF7E2
:1055D000DFFE02467808130E120243EA012110187A
:1055E0003A4671410023FAF7D3FE604AA0F54071B4
:1055F00091423CD821688FE03946D8E71946D6E772
:10560000D4F81CC04FF6EF799C4546D1082819D034
:1056100005DC58B101280CD0042875D10DE0102804
:1056200015D0202835D040286ED134E0FEF7A0F800
:1056300001E0FEF7AFF8014610E06846FCF7CAFF4C
:1056400001990BE003A8FDF767F8049906E01068DC
:10565000800604D51068C0F3C100C140C1B1636ABF
:10566000606838F81330B1FBF3F1490000E04BE01B
:1056700001EB5001B1FBF0F0A0F11001494543D816
:105680004FF6F0732168C0F342021840104343E024
:1056900043E03946E3E71946E1E7082819D005DC7D
:1056A00058B101280CD004282ED10DE0102815D0B7
:1056B00020282BD0402827D12AE0FEF759F801E016
:1056C000FEF768F8014610E06846FCF783FF019991
:1056D0000BE003A8FDF720F8049906E010688006A7
:1056E00004D51068C0F3C100C140B1B1636A6068FD
:1056F00038F81330B1FBF3F101EB5001B1FBF0F0DE
:10570000A0F11001494505D9012506E03946EDE72C
:105710001946EBE7216880B2C8600120A4F86A004E
:10572000A4F8680028466667A66707B0BDE8F0835E
:10573000F369FFCF000C0058FFF4FF110010014087
:10574000544402580044004000480040004C0040CF
:10575000005000400014014000780040007C0040F0
:105760000090D0034A5C000800440258FFFC0F0080
:1057700070B58368002481654FF48056A0F85C20E2
:10578000B342A0F85E204FF0FF01446704D10369E3
:1057900003BB40F2FF111DE04FF07F05C3B1B3F131
:1057A000805F1AD0A0F860402221C0F89040C0F875
:1057B0008C100168083151E8003F43F0010341E8D3
:1057C0000034002CF5D1416EB1F1005F0CD02FE018
:1057D000036933B9A0F86010E6E7016909B13F2118
:1057E000F8E7A0F86050DFE7B0F8681091421FD8E2
:1057F0008168B14201D10169B9B11D4902694167AE
:1058000042B1026852E8001F41F4807142E800137F
:10581000002BF6D10168083151E8002F42F0805288
:1058200041E80023002BF5D120E012494167F1E760
:105830008168B14201D1016969B10F4902694167CB
:105840005AB1016851E8002F42F4907241E80023F8
:10585000002BF6D10AE009494167026852E8001FAF
:1058600041F0200142E80013002BF6D1002070BD6A
:1058700025520008BD4F00085D510008F54E000894
:105880002DE9F047994617460D460446089E4FF00D
:10589000000833E0701C31D0FCF7C4FCA0EB090019
:1058A000B04218D8BEB120680168490726D5802DBE
:1058B00024D0402D22D0C169C94309070DD4082541
:1058C00005622046FFF7ECFAC4F89050012084F8F6
:1058D0008480BDE8F0870320FBE7C069C043000572
:1058E0000CD421684FF4006008622046FFF7D8FA14
:1058F0002021C4F8901084F88480ECE72068C06907
:1059000035EA000004D00020B842C3D00020E0E710
:105910000120F9E70148FEF731BB0000A000002498
:1059200010B5204C6079002833D02079002830D081
:105930001D49002020716378022B22D00846042BD9
:10594000C278006826D0092B23D10B79A22B20D155
:1059500062F31F60A0600A7AD1F8051062F31F613C
:10596000E160FAF75FFFA08980B2FAF751FFA16802
:105970000EA000F015F9E1680DA0BDE8104000F0A0
:105980000FB90878AA2804D14878CC2801D1012081
:10599000207010BD62F31F60A060FAF743FFA1689A
:1059A00002A0EAE70C0000240C0500246E30000081
:1059B0006E3100000348002141708170C170017197
:1059C000704700000C000024024901220248FEF743
:1059D00023BD000012000024A0000024FEE70907F8
:1059E00000284FEA116104DB00F1E02080F8001488
:1059F000704700F00F0000F1E02080F8141D7047A0
:105A000088B000250095019502950395FCF794FC5C
:105A100001248DF80C401F208DF8080087218DF897
:105A200009108DF80D4068468DF800408DF80A5039
:105A30008DF80E508DF8015001958DF80B508DF8B2
:105A40000F50FCF74BFC0420FCF784FCFCF7F8FB40
:105A5000FFF75CF84248016841F00101016001680C
:105A600001F001010091016841F00201016000684C
:105A700000F002000090FEF721FEFEF76BFEFEF73D
:105A800091FD6420FAF7CEFE43F6FF70FAF7C0FEF0
:105A900034A000F0CBF8FF2000F0BCF8FF2000F0AD
:105AA000B9F8FF2000F0B6F86420FCF789FA30A0BE
:105AB00000F0BCF8FF2000F0ADF8FF2000F0AAF8DD
:105AC000FF2000F0A7F86420FCF77AFAFFF772FFD6
:105AD0002A480470FFF778FF294E2A4CFFF720FF71
